:020000040800F2
:1000000090200020DD010008651A0008611A000830
:10001000631A0008E9070008A92B00080000000087
:10002000000000000000000000000000092400089B
:100030002108000800000000E9220008ED25000862
:10004000F7010008F7010008F7010008F7010008B0
:10005000F7010008F7010008F7010008F7010008A0
:10006000F7010008F7010008F7010008F701000890
:10007000F7010008F7010008F7010008F701000880
:10008000F7010008F7010008F7010008F701000870
:10009000F7010008F7010008F7010008F701000860
:1000A000F7010008F7010008F7010008F701000850
:1000B000F7010008B1260008F7010008F701000861
:1000C000F7010008F7010008F7010008F701000830
:1000D000F7010008AD2A0008012B0008F70100080D
:1000E000F7010008F7010008F7010008F701000810
:1000F000F7010008F7010008F7010008F701000800
:10010000F7010008F7010008F7010008F7010008EF
:10011000F7010008F7010008F7010008F7010008DF
:10012000F7010008F7010008F7010008F7010008CF
:1001300000F002F800F042F80AA090E8000C8244B7
:100140008344AAF10107DA4501D100F037F8AFF294
:10015000090EBAE80F0013F0010F18BFFB1A43F0A5
:1001600001031847182E0000382E0000103A24BF53
:1001700078C878C1FAD8520724BF30C830C144BF0C
:1001800004680C607047000000230024002500264E
:10019000103A28BF78C1FBD8520728BF30C148BFEA
:1001A0000B607047642900F00B81732900F0A7826F
:1001B000002070471FB51FBD10B510BD00F0E1FA5B
:1001C0001146FFF7F7FF02F071FD00F0FFFA03B4EC
:1001D000FFF7F2FF03BC02F0E8FC0000094880478B
:1001E00009480047FEE7FEE7FEE7FEE7FEE7FEE719
:1001F000FEE7FEE7FEE7FEE704480549054A064B31
:10020000704700006126000831010008901A0020A4
:1002100090200020901C0020901C0020EFF3108004
:1002200072B6704780F3108870471D484FF0FF0189
:100230000170002080F309881A48012101701A48D2
:100240004FF08051016062B6FEE717484FF08051D1
:100250000160704714484FF080510160704772B6DA
:10026000EFF3098028B1203880E8F00F0F490968C2
:10027000086000B50E4880475DF804EB0D480E4954
:100280000A78027009480D490A680260106890E80F
:10029000F00F203080F309884EF0040E62B67047EC
:1002A00022ED00E03900002004ED00E04C000020C9
:1002B000331F0008360000203700002054000020C3
:1002C000704700000FB4044910B503AA029800F06B
:1002D0001BFA10BC5DF814FB200000200FB41CB505
:1002E000074B06AA7B4469460090059800F0DDF9AB
:1002F0000020694600F0ECF91CBC5DF814FB00001E
:10030000E90300002DE9F0410E460446002020627A
:100310002046E168884730B3252805D0D4E901217B
:100320009047206A401CF2E7E16820460027884792
:10033000050018D0A5F14100192802D820354FF446
:1003400000673246294620462760FFF72BFF40B161
:10035000012804D0F61D26F007060836D8E7361D1A
:10036000D6E72846DAE7206ABDE8F08170B50C468A
:100370000546012A05D02878800600D5EA690023C1
:1003800002E0012305E05B1C934202D2E05C0028FE
:10039000F9D1A869E618C01AA861286A1844286229
:1003A0002846AFF3008004E0D5E9012114F8010BE1
:1003B0009047B442F8D32846AFF3008070BD0000E8
:1003C0002DE9F0410646002410687529314616A52E
:1003D00010D0AFF30080002802DA404213A507E0F6
:1003E00031688A0701D512A502E0490704D511A595
:1003F000012401E0AFF3008000210A2206F1240766
:1004000009E0B0FBF2FCB0FBF2F302FB1C00303061
:1004100078541846491C0028F3D123462A46304612
:10042000BDE8F04100F0E2B8000000002D0000003F
:100430002B0000002000000030B505460B462A4680
:1004400013F8014B12F8010B08B1A042F8D01CB10F
:10045000002802D06D1CF1E7284630BD10B5431CC2
:1004600002E010F8011B71B18107FAD14FF001329F
:1004700002C88C1A8C4314EAC211F9D0C01A0A06B9
:1004800003D0C01E10BDC01A10BD0A0401D0801ECA
:1004900010BD0902FCD0401E10BD421E12F8013FE3
:1004A000002BFBD111F8013B002B02F8013BF9D1E5
:1004B0007047032A40F2308010F0030C00F01580E2
:1004C00011F8013BBCF1020F624498BF11F801CB57
:1004D00000F8013B38BF11F8013BA2F1040298BFBC
:1004E00000F801CB38BF00F8013B11F0030300F026
:1004F0002580083AC0F0088051F8043B083A51F8CA
:1005000004CBA0E80810F5E7121D5CBF51F8043BCE
:1005100040F8043BAFF30080D20724BF11F8013B41
:1005200011F801CB48BF11F8012B24BF00F8013BA3
:1005300000F801CB48BF00F8012B704710B5203AF6
:10054000C0F00B80B1E81850203AA0E81850B1E88C
:100550001850A0E81850BFF4F5AF5FEA027C24BF42
:10056000B1E81850A0E8185044BF18C918C0BDE839
:1005700010405FEA827C24BF51F8043B40F8043B02
:1005800008BF7047D20728BF31F8023B48BF11F8B7
:10059000012B28BF20F8023B48BF00F8012B704711
:1005A0004FF000020429C0F0128010F0030C00F09C
:1005B000BF80CCF1040CBCF1020F18BF00F8012B76
:1005C000A8BF20F8022BA1EB0C0100F0B1B85FEA44
:1005D000C17C24BF00F8012B00F8012B48BF00F8B4
:1005E000012B704770477047704770472DE9F047FF
:1005F0000D4699469246044600F124080168880693
:1006000004D5E06921F01001216000E00120A8423A
:1006100001DD471B00E00027A1697A1902EB090000
:10062000081AA0612078C00602D42046AFF30080EB
:10063000002608E0D4E901211AF806009047206A54
:10064000401C761C20624E45F4DB2078C0060AD59B
:100650002046AFF3008006E0D4E901213020904726
:10066000206A401C2062381EA7F10107F4DC07E075
:10067000D4E9012118F805009047206A401C206247
:10068000281EA5F10105F3DC2046AFF30080207899
:10069000000602D50220BDE8F0870120FBE700003C
:1006A00001694A1C02610878704700B58FB0CDE936
:1006B00001310021059105497944CDE90310114626
:1006C0006846FFF71FFE0FB000BD0000E5FFFFFF0B
:1006D0000A6802F8010B0A60704710B5436913B14C
:1006E000AFF3008001E0FFF741FE012010BD12785A
:1006F00000F124010A7000224A700122EDE711681E
:100700004FF0FF32E9E70000074B70B50D467B4420
:10071000FFF7CBFF0446284600F02FF810B14FF04A
:10072000FF3070BD204670BD732500004FF0000201
:1007300000B5134694469646203922BFA0E80C50D7
:10074000A0E80C50B1F12001BFF4F7AF090728BFB2
:10075000A0E80C5048BF0CC05DF804EB890028BF2E
:1007600040F8042B08BF704748BF20F8022B11F057
:10077000804F18BF00F8012B7047007B00F080000D
:100780007047754600F02CF8AE46050069465346A2
:1007900020F00700854618B020B5FFF72DFDBDE815
:1007A00020404FF000064FF000074FF000084FF0D8
:1007B000000B21F00701AC46ACE8C009ACE8C00969
:1007C000ACE8C009ACE8C0098D46704710B50446D6
:1007D000AFF300802046BDE81040FFF7F8BC0000F2
:1007E00000487047301A0020FEE7000000F01AF8B9
:1007F00000228021054800F08DF905A0FFF762FD79
:1008000041F28834204601F095FBFBE700080140E7
:10081000636F6E6E6365207461726765740D0A00A4
:100820007047000010B54FF4FA6212A112A002F056
:10083000DDF940F6B83422460EA111A002F0D6F937
:1008400022460CA113A002F0D1F9A20009A114A024
:1008500002F0CCF947F2305206A11AA002F0C6F914
:1008600042F2283203A11DA002F0C0F9274901205D
:10087000087010BD4F4B000041540D0A00000000ED
:1008800041542B43574D4F44455F4445463D310D40
:100890000A00000041542B43494653520D0A000000
:1008A00041542B43574A41503D22434D43432D72FF
:1008B00070434A222C226672323274776B67220DA3
:1008C0000A00000041542B43495053534C53495A9A
:1008D000453D343039360D0A0000000041542B43A9
:1008E000495053544152543D2253534C222C2270B0
:1008F000726F746F6275662E73746570696F742E93
:10090000636F6D222C3434330D0A00001100002077
:1009100031B500F005F9044600F002F90099001B1A
:100920008842F9D338BD00002DE9F84FDFF8BC91BB
:10093000002309F1040A0AF1040B1C464FF00F08CA
:100940000BF1040E01270A68A7403A40BA4272D15F
:10095000DFF89CC14D68A5EB0C0665452BD00DDC7E
:10096000032D34D005DC35B3012D19D0022D2FD144
:100970001BE0112D16D0122D2AD119E0B6F5881FD3
:1009800019D006DCB6F5803F15D0B6F5801F1FD113
:1009900011E0B6F5001F0ED0B6F5041F18D10AE01D
:1009A000CB6815E0CB681B1D12E0CB6808330FE065
:1009B000CB680C330CE08B682BB1012B4FF0080394
:1009C00003D0476104E0042302E0076100E0002354
:1009D000FF2A01D8064601E000F104064FEA84052B
:1009E00001D9A5F12005376808FA05FC27EA0C07AC
:1009F00003FA05F547EA050737604D68ED006ED547
:100A00003C4DAE6946F00106AE61AD6924F00306C7
:100A100005F001050095384D7719BE68A5072D0F23
:100A200008FA05FC26EA0C06DFF8D0C0604503D1C1
:100A30004FF0000C25E052E0DFF8C4C0604502D161
:100A40004FF0010C1DE0DFF8BCC0604502D14FF053
:100A5000020C16E0DFF8B0C0604502D14FF0030C85
:100A60000FE0DFF8A8C0604502D14FF0040C08E0A9
:100A7000DFF89CC0604502D14FF0050C01E04FF05B
:100A8000060C0CFA05FC4CEA060CC7F808C04D68C9
:100A9000D9F80060ED034D4601D5164300E09643BA
:100AA0002E604D68DAF80060AD03554601D5164357
:100AB00000E096432E604D68DBF80060ED025D4675
:100AC00001D5164300E096432E604D68DEF80060C5
:100AD000AD02754601D5164300E096432E60641CB6
:100AE000102CFFF42FAFBDE8F88F00000004014088
:100AF00000001110001002400000014000080140F9
:100B0000000C014000100140001401400018014099
:100B1000001C01400AB1016170470904FBE70000B5
:100B20000148006870470000080000200248016882
:100B3000491C0160704700000800002010B5044601
:100B400000F0F8F84FF47A71B0FBF1F000F035FCEA
:100B500000222146501E00F00DF8002010BD00F0CC
:100B60001F02012191404009800000F1E020C0F8FF
:100B700000117047F0B40E4B1B68C3F30223C3F19E
:100B80000704042C00D904241D1D072D01D20023C5
:100B900000E0DB1E012606FA04F56D1E0D409D40A7
:100BA0009E40761E164045EA0601F0BC00F05BBF91
:100BB0000CED00E02DE9F047DFF8688104460E46B1
:100BC000D8F8000000F00700B0420CD2D8F80010AE
:100BD00021F007013143C8F80010D8F8000000F0F8
:100BE0000700B04273D120784F4F800705D5786851
:100BF000A16820F0F000084378602078C00755D045
:100C00006068012201280CD0022828D0022393FA20
:100C1000A3F1B1FA81F141F02001490904D039680A
:100C200003E04FF40033F2E7796A93FAA3F3B3FADF
:100C300083F303F01F039A40114248D0796821F0F2
:100C4000030101437960FFF76BFF0546606841F2DD
:100C5000883101280CD00228894615D022E04FF0B7
:100C60000073D4E7FFF75CFF411B494501D916E04B
:100C700089467868C0F381000128F3D116E0FFF7B8
:100C80004FFF411B49450AD87868C0F3810002280C
:100C9000F5D10BE0FFF744FF411B494502D9032082
:100CA000BDE8F087786810F00C0FF3D1D8F8001089
:100CB000404601F00701B1420BD9016821F007015C
:100CC00031430160006800F00700B04201D001200C
:100CD000E6E72078400705D57868E16820F4E06011
:100CE000084378602078000706D57868216920F4E9
:100CF000605040EAC100786000F052F87968F02254
:100D000092FAA2F201F0F001B2FA82F2D140074A5F
:100D1000515CC840064908600F20FFF70FFF002014
:100D2000BEE700000020024000100240F42D000841
:100D30000400002001480068704700000400002003
:100D400008480949006849684FF4E06292FAA2F243
:100D500001F4E061B2FA82F2D140044A515CC84029
:100D6000704700000400002000100240042E00081C
:100D700008480949006849684FF4605292FAA2F2A3
:100D800001F46051B2FA82F2D140044A515CC84089
:100D9000704700000400002000100240042E0008EC
:100DA00010B519A085B00FC88DE80F001AA01B4B15
:100DB0000068049059681A4801F00C02042A1DD0FA
:100DC000082A1BD14FF4701494FAA4F401F47012A1
:100DD000B4FA84F4E240C9031DF8022010D5596822
:100DE0004FF4003393FAA3F301F40031B3FA83F321
:100DF000D94004AB595CB0FBF1F0504305B010BDD5
:100E000008485043FAE700000203040506070809F2
:100E10000A0B0C0D0E0F1010010200000010024012
:100E200000127A0000093D002DE9F84F04460078D1
:100E3000FE4EC0074FF001057FD070684FF40038B8
:100E4000C0F38100012807D07068C0F38100022838
:100E50001BD17068C00318D598FAA8F0B0FA80F0DA
:100E600040F02000400901D0306800E0706A98FA34
:100E7000A8F1B1FA81F101F01F0105FA01F1084270
:100E80005BD06068002879D057E06068B0F5803F9B
:100E90000BD010B1B0F5A02F11D0306820F4803005
:100EA0003060306820F4802002E0306840F4803008
:100EB0003060606818B3FFF733FE074609E030681A
:100EC00040F480203060F0E7FFF72AFEC01B642862
:100ED00070D898FAA8F0B0FA80F040F020004009ED
:100EE00001D0306800E0706A98FAA8F1B1FA81F197
:100EF00001F01F0105FA01F10842E5D01DE0FFF7FE
:100F00000FFE074604E0FFF70BFEC01B6428DFD886
:100F100098FAA8F0B0FA80F040F02000400901D023
:100F2000306800E0706A98FAA8F1B1FA81F101F036
:100F30001F0105FA01F10842E5D12078DFF8F082BF
:100F400080074FF0000A4FF002075AD570684FF043
:100F5000F80B10F00C0F07D07068C0F38100022866
:100F60001CD17068C00319D497FAA7F0B0FA80F0CA
:100F700040F02000400902D0306801E08AE0706A49
:100F800097FAA7F1B1FA81F101F01F0105FA01F119
:100F900008422BD0206901287CD127E0206988B342
:100FA00095FAA5F0B0FA80F048F82050FFF7B8FDA8
:100FB000814606E04DE1FFF7B3FDA0EB09000228F2
:100FC00086D897FAA7F0B0FA80F040F020004009E8
:100FD00001D0306800E0706A97FAA7F1B1FA81F1A8
:100FE00001F01F0105FA01F10842E4D030689BFAD4
:100FF000ABF220F0F8016069B2FA82F2904001434E
:10100000316025E0FFE795FAA5F1B1FA81F148F8E2
:1010100021A0FFF785FD814605E0FFF781FDA0EBEC
:1010200009000228CCD897FAA7F0B0FA80F040F077
:101030002000400901D0306800E0706A97FAA7F1FB
:10104000B1FA81F101F01F0105FA01F10842E4D182
:10105000207800076DD5A069B8B395FAA5F0B0FA6D
:1010600080F008EB8000C0F88054FFF759FD8146FE
:1010700005E0FFF755FDA0EB09000228A0D897FA7C
:10108000A7F0B0FA80F040F06000B5EB501F02D13D
:1010900030680CE063E197FAA7F0B0FA80F040F016
:1010A0006000B7EB501F01D1306A00E0706A97FA18
:1010B000A7F1B1FA81F101F01F0105FA01F2104226
:1010C000D7D00120FFF724FC33E0FFE795FAA5F124
:1010D000B1FA81F108EB8101C1F880A4FFF720FD8E
:1010E000814605E0FFF71CFDA0EB0900022899D816
:1010F00097FAA7F0B0FA80F040F06000B5EB501F0F
:1011000001D130680BE097FAA7F0B0FA80F040F018
:101110006000B7EB501F01D1306A00E0706A97FAA7
:10112000A7F1B1FA81F101F01F0105FA01F21042B5
:10113000D8D12078400763D5F06940F08050F06145
:10114000F069DFF8F0B000F080500090DBF800109C
:1011500041F48071CBF80010FFF7E2FC814605E016
:10116000FFF7DEFCA0EB0900642872D8DBF8000072
:10117000C005F5D5E06801280AD008B1052813D0CC
:10118000306A20F001003062306A20F0040002E092
:10119000306A40F001003062E06841F2883B80B381
:1011A000FFF7BEFC81460AE0306A40F0040030627E
:1011B000EEE7FFF7B5FCA0EB0901594549D897FACE
:1011C000A7F0B0FA80F040F04000B5EB501F01D11D
:1011D00030680BE097FAA7F0B0FA80F040F04000DA
:1011E000B7EB501F01D1306A00E0706A97FAA7F19F
:1011F000B1FA81F101F01F0205FA02F10842D8D0DC
:1012000033E0FFE7FFF78CFC814605E0FFF788FC41
:10121000A0EB090159451CD897FAA7F0B0FA80F065
:1012200040F04000B5EB501F08D105E0001002402F
:10123000000042420070004030680CE097FAA7F0CE
:10124000B0FA80F040F04000B7EB501F02D1306A96
:1012500001E08AE0706A97FAA7F1B1FA81F101F032
:101260001F0205FA02F10842D0D1E06998B3716813
:10127000C1F38101022972D002284FF080714FF032
:10128000007B50460AD091FAA1F1B1FA81F148F8F9
:101290002100FFF745FC04465F4669E08A4691FA63
:1012A000A1F1B1FA81F1C14648F82100FFF738FCFD
:1012B000A84607465D4604E0FFF732FCC01B022843
:1012C00053D895FAA5F0B0FA80F040F0200040091C
:1012D00002D0306801E060E0706A95FAA5F1B1FAD9
:1012E00081F101F01F0208FA02F10842E4D1206AFC
:1012F000B0F5803F05D17068A16820F40030084344
:101300007060D4E908010843716821F4741108433E
:1013100070609AFAAAF0B0FA80F0474649F8208047
:10132000FFF7FEFB044604E0FFF7FAFB001B022870
:101330001BD895FAA5F0B0FA80F040F020004009E3
:1013400001D0306800E0706A95FAA5F1B1FA81F138
:1013500001F01F0107FA01F10842E5D01DE01EE08F
:10136000FFF7DEFB001B022802D90320BDE8F88F3F
:1013700097FAA7F0B0FA80F040F02000400901D0C1
:10138000306800E0706A97FAA7F1B1FA81F101F0D4
:101390001F0105FA01F10842E2D10020E6E7012031
:1013A000E4E74FF0E0210428086903D020F00400AE
:1013B0000861704740F00400FAE710B5401EB0F134
:1013C000807F01D3012010BD4FF0E02460610F2128
:1013D000601700F048FB0020A0610720206100207A
:1013E00010BD7047704710B5040003D094F8390061
:1013F00010B107E0012010BD002084F8380020461D
:1014000000F00CF8022084F83900211D206801F05A
:101410006BF9012084F83900002010BD08B5006880
:101420000B49884212D10B48C16941F00201C161E8
:10143000C069032200F00200009001211D20FFF787
:1014400099FBBDE808401D20FFF789BB08BD0000DF
:1014500000040040001002400168CA6842F0010226
:10146000CA600068016841F0010101600020704716
:10147000704770B50446006801694FF00005C94324
:10148000890715D4C168C943890711D4E91E0161D0
:1014900001202076206880698007204602D0FFF76F
:1014A000E7FF04E000F098F8204600F096F8257673
:1014B00020680169C943490717D4C168C94349076E
:1014C00013D46FF004010161022020762068806946
:1014D00010F4407F204602D0FFF7CAFF04E000F07E
:1014E0007BF8204600F079F8257620680169C94329
:1014F000090716D4C168C943090712D46FF008015F
:101500000161042020762068C0698007204602D04F
:10151000FFF7AEFF04E000F05FF8204600F05DF852
:10152000257620680169C943C90617D4C168C94333
:10153000C90613D46FF010010161082020762068DD
:10154000C06910F4407F204602D0FFF791FF04E00D
:1015500000F042F8204600F040F825762068016946
:10156000C943C90708D1C168C943C90704D1891E45
:101570000161204600F032F820680169C94309067C
:1015800009D4C168C943090605D46FF0800101611F
:101590002046FFF726FF20680169C943490609D4A0
:1015A000C168C943490605D46FF040010161204676
:1015B00000F022F820680169C94389060BD4C1688C
:1015C000C943890607D46FF0200101612046BDE8B8
:1015D0007040FFF707BF70BD7047704704498842ED
:1015E00005D10448017809B14168491C4160704740
:1015F00098130020240000207047704738B5044637
:1016000000680168C268C1F3000102F4807221B170
:101610001AB1E16B41F00101E1630168C1F34002DD
:10162000416901F0010122B119B1E26B42F00402FB
:10163000E2630268C2F3800222B119B1E26B42F0A8
:101640000202E2630268C2F3C00222B119B1E16B87
:1016500041F00801E1630168C068C1F3401100F086
:10166000200019B110B1204601F0E0F820680168AF
:10167000C068C1F3C01100F0800019B110B120465C
:1016800001F0E0F921680868CA68C0F3801002F030
:101690004002012568B162B1CA68204622F04002CA
:1016A000CA6094F83910322910D080F8395000F00F
:1016B0000CF9E06B002808D02068016840680090B1
:1016C00084F839502046FFF798FF38BD222180F872
:1016D0003910ECE770B5040004D094F83900002507
:1016E00010B106E0012070BD84F83850204600F0AB
:1016F00021F8022084F839002068C16821F40051E3
:10170000C160204601F0E6F82068016921F49041AB
:1017100001612068416921F02A0141612068C168A6
:1017200041F40051C160E563012084F839000020D4
:1017300070BD0000F0B545490068DFF80CC1002419
:10174000022201230327424D0E1585B060452BD19F
:10175000886940F004008861886900F00400049002
:10176000886940F480408861886900F48040049072
:10177000886940F001008861886900F001000490E8
:1017800048158DE88D0069462846FFF7CDF8CDE96C
:10179000006469462846FFF7C7F82520FFF7DFF900
:1017A00003221146252027E0DFF8A8C0604527D195
:1017B000886940F004008861886900F004000490A2
:1017C000C86940F40030C861C869694600F4003057
:1017D000049004208DE88D002846FFF7A5F8082125
:1017E000CDE9001469462846FFF79EF82620FFF74A
:1017F000B6F9032211462620FFF7BCF905B0F0BD6B
:10180000154DA842FAD1886940F0080088618869BE
:1018100000F008000490C86940F48020C861C869DD
:10182000009600F48020CDE903700C4D69462846EF
:10183000CDE90123FFF778F8E914CDE900146946F2
:101840002846FFF771F8D9E7003801400010024040
:10185000000801400044004000480040000C0140E6
:1018600090F83930012B01D0122B2BD131B32AB390
:1018700090F83830012B25D0012380F83830816270
:101880008285C2850021C16390F83920122A17D0C1
:10189000222280F8392080F838100168CA6842F4A2
:1018A0008072CA6001684A6942F001024A610068B8
:1018B000C16841F02001C1600020704701207047DD
:1018C0003222E6E7022070477047704710B54FF4A8
:1018D00000711048FEF764FE0FA213A11748FEF72F
:1018E000FDFC16490B48FEF7D8FD15A21AA11348B6
:1018F000FEF7F4FC11490748FEF7CFFD19A21EA11F
:101900000E48FEF7EBFCBDE810400C490148FEF71D
:10191000C4BD0000980A00202F6170692F6F7065A8
:101920007261746500000000504F535420257320ED
:10193000485454502F312E310D0A0000980C0020CD
:1019400070726F746F6275662E73746570696F74F0
:101950002E636F6D00000000486F73743A2025738A
:101960000D0A00006170706C69636174696F6E2F9D
:101970006A736F6E00000000436F6E74656E742DA5
:10198000547970653A2025730D0A000010B504469D
:10199000FFF79CFF23461B4A1BA12548FEF79EFC30
:1019A0002348FEF75BFD821E22A12848FEF796FC25
:1019B0002649A1F54070FEF770FD1D49A1F50070A4
:1019C000FEF76BFD0B2122A001F0DAF82348FEF7A9
:1019D00045FD02461BA11648FEF780FC1448FEF7A1
:1019E0003DFD81B2124801F0CBF84FF47A7000F05F
:1019F000A1FA1A48FEF732FD81B2BDE8104017483F
:101A000001F0BEB80C2F00080D0A7B0D0A22746F7E
:101A10006B656E223A222573222C0D0A22616374B3
:101A2000696F6E223A222573220D0A7D00000000A4
:101A3000980C0020436F6E74656E742D4C656E6754
:101A400074683A2025640D0A00000000980D0020FB
:101A500041542B43495053454E443D00980A0020C1
:101A6000FEE7FEE770470907090E002806DA00F0D6
:101A70000F0000F1E02080F8141D704700F1E02015
:101A800080F800147047000038B500F07BF8354C42
:101A90000023A36223706370A3716371E3606361C9
:101AA000237104F108011846401CC0B201F8013B43
:101AB0000228F9D3A370E37023624FF4D8712A4847
:101AC000A36100F029FB28482C212C3800F024FBCE
:101AD0002548002200F148013F25416080F8385038
:101AE00080F83930521CD2B248304831052AF4D33C
:101AF000436080F8385080F839301B486362E061F9
:101B00004FF4A071A0F51B7000F006FB17480022EF
:101B100000F1200100F8043B521C40F8091B92B26E
:101B200000F8015B203100F8123B092AF2D3037060
:101B30004360457383730D48206100F0B9FA00F0EB
:101B4000F5FA094A0A23303A0021094800F086F8DC
:101B50006A4608A10A2000F06BF9BDE8384000F0A1
:101B600012B800003400002040170020D4140020D8
:101B7000CD22000875432F4F532D49492049646CED
:101B8000650000007047704770B5144C60790128FB
:101B900022D1FEF743FB0546207820B1401E10F00D
:101BA000FF00207013D1607888B900F005FBE07861
:101BB000A17888420BD00A4951F820102162486A66
:101BC000401C4862E068401CE060FEF743FB28468A
:101BD000BDE87040FEF726BB70BD00003400002059
:101BE0001417002070B505460D48007808B1002094
:101BF00070BDFEF713FB0B490C680CB162680A60FC
:101C0000FEF710FB54B103202070258100203F21F6
:101C100060606173A073204600F03FFA204670BDFB
:101C2000340000204400002010B5094C60790028E1
:101C30000CD100F0C1FAE0780649A07051F82000FC
:101C40002062A061BDE81040FEF7EFBA10BD0000B1
:101C50003400002014170020704700002DE9FE43D7
:101C60001C4616460F4680460A2B02D92A20BDE89C
:101C7000FE83FEF7D3FA1A49097819B1FEF7D2FAB2
:101C80003C20F4E7174D55F8241019B1FEF7CAFAB5
:101C90002820ECE7012145F82410FEF7C3FA0023C1
:101CA00032463946404600F00BF9002601460096C0
:101CB0000196334632462046029600F0A5FA070008
:101CC00007D0FEF7ABFA45F82460FEF7ABFA3846CA
:101CD000CDE7054800780128F9D100F049FAF6E788
:101CE0003400002014170020390000207047000045
:101CF0002DE9F04705464348007810B14020BDE883
:101D0000F0870A2D04D005D3FF2D03D02A20F6E753
:101D10003E20F4E7FEF782FA0646FF2D02D13A484C
:101D20000068857FDFF8E49059F825405CB1012C0C
:101D30000ED094F82010364A94F82130505C984325
:101D400050540AD00FE03046FEF76CFA4320D6E735
:101D50003046FEF767FA3D20D1E72E4894F822205E
:101D6000017891430170E16811B1204600F085F9D6
:101D7000606908B100F0C0F94FF00008A4F81A80BB
:101D8000254F84F81C8084F81D803878FF2801D204
:101D9000401C38703046FEF745FA00F06DF9FEF74A
:101DA0003DFA0646387808B1401E3870204600F0EB
:101DB0003DF81A480178491E017049F82580A0684D
:101DC0004146A0B162684260D4E9010282601448D1
:101DD0000268626004603F2004F8380F304661708A
:101DE000FEF720FA0F480078012806D007E0606867
:101DF0000D4A816060681060E9E700F0B9F90020E1
:101E00007DE70000340000204C0000201417002063
:101E10003C00002038000020350000203A0000205F
:101E20005000002039000020580000207047704703
:101E30002DE9F0418846054614000DD00A2D03D93E
:101E4000FF2D01D02A2006E0B8F1000F06D0194876
:101E5000007828B112201070BDE8F0810C20FAE75C
:101E6000FEF7DCF90646FF2D02D113480068857F96
:101E70001248432750F825505DB1012D09D0404646
:101E800000F0B8F90F2809D93046FEF7CBF9412008
:101E90000DE03046FEF7C6F92770DDE7414605F153
:101EA000380000F099F93046FEF7BCF900202070A8
:101EB000D2E70000340000204C000020141700205E
:101EC0004FF080731360131F1860A2F108006FF0C9
:101ED00001030360001F4FF012330360001F4FF037
:101EE00003330360001F4FF002330360001F5B10D9
:101EF0000360001F0160001F4FF011310160001FDF
:101F000019010160001F4FF009310160001FD90065
:101F10000160001F4FF007310160001F4FF00631D4
:101F20000160001F4FF0053101609900001F016042
:101F30007047704770B504461148007800281DD1DD
:101F4000002C1BD0FEF76AF903460E480E4D0168BF
:101F500091F8202091F82160A85CB043A85405D1E5
:101F60000A4891F822500278AA4302704C8318461E
:101F7000FEF758F9BDE8704000F0FAB870BD0000F7
:101F8000340000204C0000203C00002038000020DD
:101F90002DE9F04100F048F8FEF740F9214DA96A1B
:101FA000491CA962FEF73EF96879012837D1E87922
:101FB0000126002720B1012831D0022802D0EF717C
:101FC0006C6A29E0EE71FBE7FEF728F9618B01B33B
:101FD000491E0904090C61831BD1217F11F0370FC1
:101FE00004D021F037012177667700E06777217F01
:101FF00009070ED494F822102A790A4B114329714B
:1020000094F82010083394F821C05A5C42EA0C027C
:102010005A546468FEF706F9A07F0A28D4D1BDE8B7
:10202000F0810000340000207047000010B5FEF77A
:10203000F5F8064A1178491C1170FEF7F3F8FFF71E
:10204000A7FFBDE81040FFF79FBD0000340000204F
:102050004FF0E0204FF6FF114161064AFF21117059
:10206000016941F005010161016941F0020101616D
:102070007047000023ED00E0704710B590F8202075
:1020800090F821408B18DA7AA243DA7204D18A7A66
:1020900090F8220082438A7210BD0022827211469B
:1020A0000B30491CC9B200F8012B0229F9D3704743
:1020B00010B58C210E4800F02FF80D48002200F1D9
:1020C0001C0113463F2400F8043B521C40F8061B39
:1020D00092B200F8014B1C3100F8113B042AF2D3F4
:1020E0000370436084720349C3720148086010BDE5
:1020F000F018002060000020D0E9001200232AB16F
:10210000116001B14A60806843617047C26800296C
:102110005160F8D04B60F6E7002203E0491E00F85A
:10212000012B89B20029F9D17047000070B5B421A4
:102130000D48FFF7F1FF0C4800210B4604463F25F0
:1021400001EBC10204EB8202243242600575437543
:10215000491C89B224300429F2D3436005754375C4
:102160000248046070BD00007C190020640000205B
:1021700070B5FEF753F80E4C0546207898B9607894
:1021800088B900F019F8E078A17888420BD00949A5
:1021900051F820102162486A401C4862E068401CE7
:1021A000E060FEF752F82846BDE87040FEF73AB806
:1021B00034000020141700200649054A01F10803E5
:1021C0000879105C1B5CD25C02EBC000C8707047E1
:1021D0000C2E000834000020002204E0521C00F8FD
:1021E000013BD2B2491C0B78002BF7D100210170C2
:1021F000104670470146002002E0401CC0B2491C56
:102200000A78002AF9D170472DE9F0410D460646BB
:10221000FEF704F82B4FFC69002C4ED054F8041F35
:10222000F961FDF7FFFF44F8045CA67600252576EA
:102230006576E582F008E5772077012306F007014F
:1022400003FA00F2E176A27703FA01F26277A56061
:102250002561E5602562A5626562E5623F20256330
:1022600084F8340084F83550241F2046FFF7F4FC2E
:102270002046FFF73BFDFDF7D1FF0146124840F82D
:102280002640786AC4E9010500B184607C6294F854
:1022900022003A79104338710A4A14F8200F0832A4
:1022A0006478135C23431354B879401CB871084612
:1022B000FDF7B8FF0020BDE8F081FDF7B3FF422035
:1022C000F9E700003400002014170020054CFDF74A
:1022D000A5FF6169491C6161FDF7A4FFFFF7A7FD38
:1022E000F5E7000034000020FDF7B9BF08B56B46E4
:1022F000094A00F03FFD09480749406840390A6C27
:10230000026091F844200271002A03D080684531B0
:10231000FEF7CFF808BD0000941400202C00002028
:1023200030B5164885B0816941F00401816180694A
:10233000134C00F0040004904FF4907000900120C2
:1023400001900220039069462046FEF7EDFAA5159C
:10235000002229462046FEF7DDFB002229462046C2
:10236000FEF7D8FB06482024143004606420FEF7F2
:10237000CFFA03481030046005B030BD00100240B1
:1023800000080140F8B51D4E1D001D4C13460F46B8
:1023900072780699227002F1010272706370A07067
:1023A000E77025714FF00500307006D0601D2A4699
:1023B000FEF77FF8307828443070114AC1B26B467E
:1023C00080320F4800F090FC01220E4D140221468D
:1023D0002846FEF79FFB0A2000F04CFC08489DF8B9
:1023E0000010803000F078FB142000F043FC002245
:1023F00021462846FEF78EFBF8BD00000C000020A9
:10240000D80D0020000801407047000010B54FF4BF
:10241000E134204600F0B2F9204600F0CBF9204626
:1024200000F0E6F913A0FDF74DFFFFF779FF3F211C
:1024300040F2E73000F042F9144800F04BFC002075
:10244000FFF7D0FB0146114820222038FEF776F82E
:1024500004230F4A00210F48FFF700FC0B4A052315
:10246000243A00210C48FFF7F9FBBDE81040062094
:10247000FFF73EBC74686973207573617274332012
:102480007072696E74660D0A00000000880A0020F0
:10249000640900209D240008ED07000808B5DFF856
:1024A000C480314FDFF8C49000250120FFF742FDC2
:1024B000641CE4B2642C07D30024012223460221C9
:1024C00010460095FFF75EFF98F80C00464601287D
:1024D000EBD1F0780128E8D13573B0680178002994
:1024E0002DD023A0FDF7EEFEB0680078012804D0BF
:1024F00002280DD0032816D021E03878C0F1010061
:1025000010F0FF00387001D01DA016E01FA014E0ED
:102510007878C0F1010010F0FF00787001D01FA0A2
:102520000BE022A009E0B878C0F1010010F0FF0034
:10253000B87001D021A000E023A0FFF727FAD9F856
:1025400000004E460028B0D00520FFF7F3FC2249DA
:1025500022A03560FDF7B6FE4FF480611E48FEF7FD
:102560001FF8A2E7880A0020000000201C000020BD
:1025700067657420636D643D25640D0A00000000EA
:102580007475726E4F6E4C69676874007475726E04
:102590004F66664C69676874000000006F70656E76
:1025A000446F6F724C6F636B00000000636C6F735D
:1025B00065446F6F724C6F636B0000006F70656EE7
:1025C0004375727461696E00636C6F7365437572F5
:1025D0007461696E00000000580F00205265636549
:1025E0006976653A3D25730D0A00000010B5FEF7C7
:1025F0009DFABDE81040FFF719BD30B58FB0022439
:102600000120049000941020059000254FF46010E4
:10261000CDE9085007946846FEF706FC00B1FEE7D6
:102620000AA90F2081E831004FF48060CDE90D0543
:1026300002210AA8FEF7BEFA00B1FEE7FEF77AFB18
:102640004FF47A71B0FBF1F0FEF7B7FE0420FEF70D
:10265000A8FE00221146501EFEF78CFA0FB030BDC6
:102660000F4810B5016841F00101016041680D4A51
:102670001140416001680C4A11400160016821F479
:1026800080210160416821F4FE0141604FF41F0187
:102690008160FFF7B2FF05494FF00060086010BD90
:1026A000001002400000FFF8FFFFF6FE08ED00E01A
:1026B0000148FEF7DEBE000098130020094A10B55D
:1026C000074BC2E900310021C2E902101046116136
:1026D000FEF789FEBDE810400248FEF7BDBE0000CF
:1026E0000004004098130020F0B502681A4D1B4EFC
:1026F0001B4FDFF870C01C4B4FF0804EA84209D032
:10270000984207D0704505D0B04203D0B84201D0FE
:10271000604503D122F070044A682243A84209D0E0
:10272000984207D0704505D0B04203D0B84201D0DE
:10273000604503D122F44074CA68224302608A686B
:10274000C2620A688262A84201D0984201D1096936
:10275000016301214161F0BD002C014000040040F3
:1027600000080040000C004000340140024900B164
:102770000120087070470000240000200B4910B5AC
:10278000094AC1E9002000208860C86008618861AA
:102790000C2048610846FEF79DFFBDE8104001226D
:1027A00003490248FFF75CB800380140D80E00200A
:1027B000120000200C4910B50A4AC1E9002000208F
:1027C0008860C8600C220861C1E90520C86108461C
:1027D000FEF780FFBDE81040012204490248FFF7E0
:1027E0003FB80000004400405813002013000020B0
:1027F0000C4910B50A4AC1E9002000208860C86071
:102800000C220861C1E90520C8610846FEF762FF95
:10281000BDE81040012204490248FFF721B800003A
:1028200000480040180F00201300002010B590F859
:102830003910222903D0322901D0022010BD81682D
:10284000B1F5805F11D00169002901681FD0496886
:1028500001F07F03816A4A1C82620B70C18D491EA0
:102860000904090CC18518D02FE00269816A002A89
:102870000268526805D0D2B20A80816A491C81621E
:10288000ECE7C2F308020A80816A891CF7E74A680C
:10289000816A4B1C83620A70E0E70168CA6822F013
:1028A0002002CA6090F83910322910D00168CA6835
:1028B00022F48072CA6001684A6922F001024A610A
:1028C000012180F83910FEF7FFFF002010BD122112
:1028D000F7E700002DE9F041044600680169E2686D
:1028E00021F4405111430161A168206901436069ED
:1028F00001432068C26841F20C639A430A43C260F4
:1029000020684169A26921F44071114341614C4939
:1029100020686426322788423CD1FEF729FA00EB72
:10292000C00101EB001061688900B0FBF1F5FEF712
:102930001FFA00EBC00101EB00106168B846890086
:10294000B0FBF1F0B0FBF6F06FF01801484305EB77
:10295000800107EB0110B0FBF6F000F0F005FEF788
:1029600007FA00EBC00101EB001061688900B0FBC1
:10297000F1F0B0FBF6F005EB0015FEF7F9F900EB0E
:10298000C00101EB001061688900B0FBF1F7FEF7B0
:10299000EFF93BE0FEF7D4F900EBC00101EB0010CA
:1029A00061688900B0FBF1F5FEF7CAF900EBC001E0
:1029B00001EB00106168B8468900B0FBF1F0B0FB94
:1029C000F6F06FF01801484305EB800107EB0110AA
:1029D000B0FBF6F000F0F005FEF7B2F900EBC00135
:1029E00001EB001061688900B0FBF1F0B0FBF6F07C
:1029F00005EB0015FEF7A4F900EBC00101EB001098
:102A000061688900B0FBF1F7FEF79AF900EBC001AD
:102A100001EB001061688900B0FBF1F0B0FBF6F04B
:102A20006FF01801484307EB800108EB0110B0FB81
:102A3000F6F0216800F00F0028448860BDE8F081BE
:102A40000038014090F83910122903D0322901D002
:102A5000022070478168B1F5805F016A0BD04A1C83
:102A60000262026809785160C18C491E0904090C90
:102A7000C1840ED017E009880268C1F308015160D3
:102A800001690029016A02D0491C0162ECE7891C36
:102A9000FBE70168CA6822F08002CA600068C1686A
:102AA00041F04001C160002070470000084810B5A7
:102AB00000680068C043800604D406480068C0B2BD
:102AC00000F074F9BDE810400148FEF797BD000022
:102AD000D80E00200438014010B5084A141D05E046
:102AE00013685B06FCD510F8013B2360491E89B2D0
:102AF000F6D210684006FCD510BD00000038014039
:102B00002DE9F041194800680068C043800621D4CF
:102B100017480068174DC4B2E86801041AD46978F0
:102B2000154F4FF480680026C9B1410404D5632CC9
:102B30000FD140F4004003E0622C03D140F4804008
:102B4000E86007E0C0F30D01401C7C54E86040459C
:102B500000D3EE60BDE8F0410448FEF74FBD012010
:102B6000FFF704FE05480660E868EBE7581300200D
:102B70000444004010000020580F002028000020CE
:102B800010B5084A141D05E013685B06FCD510F863
:102B9000013B2360491E89B2F6D210684006FCD57D
:102BA00010BD000000440040FEE7704702460020D0
:102BB00002E012F8013B5840491EC9B2F9D27047F1
:102BC00010B5084A044600209189090408D5D06050
:102BD000FFF7CCFD2146BDE810400348FDF72CBCB3
:102BE00010BD000010000020580F00202DE9F0411A
:102BF0001646884607460024FDF730FCC1B2164849
:102C000000254FF480620555641CA4B29442FAD3A7
:102C10003846FFF7B5FF114F00243D60104D13E01B
:102C20000120FFF787F938680A2803D3E86840F4E1
:102C30000040E8604046FFF7C3FF18B109A0FDF768
:102C400041FB03E0641CA4B2B442E9D32146BDE8D1
:102C5000F04106A0FDF736BB580F002028000020E9
:102C600010000020627265616B3B0000693D2564C5
:102C70000D0A000002E00221491EFDD2401EFAD2D8
:102C80007047000010B50749074CC3B20A78211FEE
:102C900022B10A685206FCD5236010BD0A685206AC
:102CA000FCD5F9E7100000200448004010B5FFF7FC
:102CB000CFF9FEF7E9FE0623044A00210448FEF797
:102CC000CDFFFEF7B1FF002010BD00006401002021
:102CD0000D240008024981600249486070470000E5
:102CE000D41300202C0000202DE9F0474FF0C0093C
:102CF0000124DC279A46154682F80090DB264FF027
:102D0000DD0808E00278C02A1AD0DB2A1DD02A5537
:102D1000641CE4B2401C491EC9B2F3D22146681CAF
:102D2000FFF744FFC02818D0DB281BD02855641CAF
:102D3000E0B205F80090401C8AF80000BDE8F0877A
:102D40002E55641CE2B2AF5404E02E55641CE2B26E
:102D500005F80280521CD4B2DCE72E55641CE0B2A8
:102D60002F5404E02E55641CE0B205F80080401C8E
:102D7000C0B2DEE770B5002408E00578DB2D0AD08C
:102D8000C02D02D01555641CE4B2401C491EC9B2C6
:102D9000F3D21C7070BD10F8015FDC2D03D0DD2D67
:102DA000F3D1DB25EEE7C025ECE7000070B50F4C52
:102DB00000230F4E6178012589B101290ED12146EA
:102DC0000A78511CC9B2B054C028217006D1A37032
:102DD00063703046FFF78AFA6068057370BDC028DB
:102DE000FCD130702570657070BD00002C00002093
:102DF0001414002000000000000000000102030481
:102E00000607080900000000010203040000010099
:102E100002000100030001000200010004000100A3
:102E20000200010003000100020001000500010092
:102E30000200010003000100020001000400010083
:102E40000200010003000100020001000600010071
:102E50000200010003000100020001000400010063
:102E60000200010003000100020001000500010052
:102E70000200010003000100020001000400010043
:102E80000200010003000100020001000700010030
:102E90000200010003000100020001000400010023
:102EA0000200010003000100020001000500010012
:102EB0000200010003000100020001000400010003
:102EC00002000100030001000200010006000100F1
:102ED00002000100030001000200010004000100E3
:102EE00002000100030001000200010005000100D2
:102EF00002000100030001000200010004000100C3
:102F000002000100030001000200010065794A6827
:102F1000624763694F694A49557A49314E694A396E
:102F20002E65794A6E636D393163454A7962694924
:102F300036496A457A4D7A6B304E54497A4E7A63F7
:102F4000334F5449774E544D794E446B6966512E38
:102F500050377A34374D4C366857415A6159797435
:102F600076732D6C56532D5830485F76614D6454FE
:102F7000724147444F4555375A4151009C2F000834
:102F800000000020680000006C0100080430000808
:102F900068000020282000008801000800000000D0
:102FA0000090D003000000000000000001000000BD
:102FB0000000000000000000000000000000000011
:102FC0000000000000000000000000000000000001
:102FD00000000000000000000000000000000000F1
:102FE00000000000000000000000000000000000E1
:102FF00000000000000000000000000000000000D1
:0430000000000000CC
:0400000508000131BD
:00000001FF
