:020000040800F2
:1000000020170020D501000837180008FD16000849
:10001000351800081D070008152A00080000000018
:10002000000000000000000000000000E7010008E0
:100030004107000800000000752200088124000824
:10004000EF010008EF010008EF010008EF010008D0
:10005000EF010008EF010008EF010008EF010008C0
:10006000EF010008EF010008EF010008EF010008B0
:10007000EF010008EF010008EF010008EF010008A0
:10008000EF010008EF010008EF010008EF01000890
:10009000EF010008EF010008EF010008EF01000880
:1000A000EF010008EF010008EF010008EF01000870
:1000B000EF01000845250008EF010008EF010008E6
:1000C000EF010008EF010008EF010008EF01000850
:1000D000EF0100084129000895290008EF010008F8
:1000E000EF010008EF010008EF010008EF01000830
:1000F000EF010008EF010008EF010008EF01000820
:10010000EF010008EF010008EF010008EF0100080F
:10011000EF010008EF010008EF010008EF010008FF
:10012000EF010008EF010008EF010008EF010008EF
:1001300000F002F800F03FF80AA090E8000C8244BA
:100140008344AAF10107DA4501D100F034F8AFF297
:10015000090EBAE80F0013F0010F18BFFB1A43F0A5
:1001600001031847A82B0000C82B0000103A24BF39
:1001700078C878C1FAD8520724BF30C830C144BF0C
:1001800004680C607047000000230024002500264E
:10019000103A28BF78C1FBD8520728BF30C148BFEA
:1001A0000B607047782900F0BD80002070471FB5B4
:1001B0001FBD10B510BD00F07FFA1146FFF7F7FF25
:1001C00002F04EFC00F09DFA03B4FFF7F2FF03BC0F
:1001D00002F028FC0948804709480047FEE7FEE78F
:1001E000FEE7FEE7FEE7FEE7FEE7FEE7FEE7FEE7E7
:1001F00004480549054A064B70470000F5240008ED
:1002000031010008201100202017002020130020B9
:1002100020130020EFF3108072B6704780F310882F
:1002200070471D484FF0FF010170002080F30988DE
:100230001A48012101701A484FF08051016062B6DE
:10024000FEE717484FF080510160704714484FF0A7
:1002500080510160704772B6EFF3098028B12038F1
:1002600080E8F00F0F490968086000B50E48804724
:100270005DF804EB0D480E490A78027009480D49F3
:100280000A680260106890E8F00F203080F3098857
:100290004EF0040E62B6704722ED00E041000020EF
:1002A00004ED00E050000020171E00083E00002072
:1002B0003F00002058000020704700000FB40449A0
:1002C00010B503AA029800F0E1F910BC5DF814FB28
:1002D0002400002070B5044685690068C10601D578
:1002E000302600E02026C00707D070BDD4E90121E8
:1002F00030469047206A401C20626D1EF6D570BDC6
:1003000070B5044685690078C00707D170BDD4E98F
:10031000012120209047206A401C20626D1EF6D5E6
:1003200070BD000070B504460D4621461068AFF35D
:1003300000802188090502D50F4A7A4402E00E4A5E
:100340007A440E32002104F1240305E000F00F0688
:100350000009965D5E54491C0028F7D120780023DF
:10036000000704D5702D02D009B1022311322046B6
:10037000BDE8704000F019B9922900002DE9F05F46
:10038000894604464FF0000ADFF824B1FB44C0F868
:1003900020A02046E168884700287DD0252806D087
:1003A000D4E901219047206A401C2062F1E7002532
:1003B0005F462046E16888472028064607DB312E45
:1003C00005D2B81910F8200C08B10543F1E7A807C9
:1003D00001D525F00405C4F81CA00027C4F818A016
:1003E0002A2E09D0304602F016FB38B304EB8708FA
:1003F000303EC8F8186019E059F8041B204604EB99
:1004000087029161E1688847012F064618D1E069AB
:10041000002820DA25F020051DE0D8F8180000EBB0
:10042000800006EB40003038C8F818002046E1682C
:100430008847064602F0EFFA0028EED1012F0AD0D5
:100440002E2E08D12046E16888477F1C0646022FE1
:1004500045F02005C4DBA069002803DA404245F0DE
:100460000105A061E80701D025F01005A6B1A6F1AD
:100470004100192802D8203645F400654A46314625
:10048000204625604D46FFF78DFE60B1012807D05C
:10049000ED1D25F0070000E007E000F1080978E70E
:1004A00005F1040975E730467AE7206ABDE8F09F58
:1004B00068290000032A40F2308010F0030C00F09D
:1004C000158011F8013BBCF1020F624498BF11F88E
:1004D00001CB00F8013B38BF11F8013BA2F1040247
:1004E00098BF00F801CB38BF00F8013B11F00303BF
:1004F00000F02580083AC0F0088051F8043B083A23
:1005000051F804CBA0E80810F5E7121D5CBF51F8C4
:10051000043B40F8043BAFF30080D20724BF11F83E
:10052000013B11F801CB48BF11F8012B24BF00F8A3
:10053000013B00F801CB48BF00F8012B704710B514
:10054000203AC0F00B80B1E81850203AA0E81850CB
:10055000B1E81850A0E81850BFF4F5AF5FEA027C8C
:1005600024BFB1E81850A0E8185044BF18C918C0FB
:10057000BDE810405FEA827C24BF51F8043B40F89C
:10058000043B08BF7047D20728BF31F8023B48BF81
:1005900011F8012B28BF20F8023B48BF00F8012BBF
:1005A000704770477047704770472DE9F0470D4618
:1005B00099469246044600F124080168880604D54D
:1005C000E06921F01001216000E00120A84201DD76
:1005D000471B00E00027A1697A1902EB0900081AFD
:1005E000A0612078C00602D42046FFF773FE0026E3
:1005F00008E0D4E901211AF806009047206A401C5F
:10060000761C20624E45F4DB2078C0060AD52046D1
:10061000FFF760FE06E0D4E9012130209047206A10
:10062000401C2062381EA7F10107F4DC07E0D4E982
:10063000012118F805009047206A401C2062281EFE
:10064000A5F10105F3DC2046FFF75AFE20780006ED
:1006500002D50220BDE8F0870120FBE701694A1CB2
:1006600002610878704700B58FB0CDE901310021F3
:10067000059105497944CDE9031011466846FFF715
:100680007DFE0FB000BD0000E5FFFFFF074B70B51A
:100690000D467B44FFF7E7FF0446284600F008F8C4
:1006A00010B14FF0FF3070BD204670BDB323000085
:1006B000007B00F080007047754600F02BF8AE46D6
:1006C00005006946534620F00700854618B020B55E
:1006D000FFF78EFDBDE820404FF000064FF0000709
:1006E0004FF000084FF0000B21F00701AC46ACE8DA
:1006F000C009ACE8C009ACE8C009ACE8C0098D4647
:10070000704710B50446AFF300802046BDE81040A6
:10071000FFF75ABD00487047BC100020FEE70000FC
:10072000064C012001F078FB01F046F82178002901
:10073000F7D10028F5D02070F3E70000000000207A
:10074000704731B500F004F9044600F001F9009952
:10075000001B8842F9D338BD2DE9F84FDFF8BC9172
:10076000002309F1040A0AF1040B1C464FF00F089C
:100770000BF1040E01270A68A7403A40BA4272D131
:10078000DFF89CC14D68A5EB0C0665452BD00DDC50
:10079000032D34D005DC35B3012D19D0022D2FD116
:1007A0001BE0112D16D0122D2AD119E0B6F5881FA5
:1007B00019D006DCB6F5803F15D0B6F5801F1FD1E5
:1007C00011E0B6F5001F0ED0B6F5041F18D10AE0EF
:1007D000CB6815E0CB681B1D12E0CB6808330FE037
:1007E000CB680C330CE08B682BB1012B4FF0080366
:1007F00003D0476104E0042302E0076100E0002326
:10080000FF2A01D8064601E000F104064FEA8405FC
:1008100001D9A5F12005376808FA05FC27EA0C077D
:1008200003FA05F547EA050737604D68ED006ED518
:100830003C4DAE6946F00106AE61AD6924F0030699
:1008400005F001050095384D7719BE68A5072D0FF5
:1008500008FA05FC26EA0C06DFF8D0C0604503D193
:100860004FF0000C25E052E0DFF8C4C0604502D133
:100870004FF0010C1DE0DFF8BCC0604502D14FF025
:10088000020C16E0DFF8B0C0604502D14FF0030C57
:100890000FE0DFF8A8C0604502D14FF0040C08E07B
:1008A000DFF89CC0604502D14FF0050C01E04FF02D
:1008B000060C0CFA05FC4CEA060CC7F808C04D689B
:1008C000D9F80060ED034D4601D5164300E096438C
:1008D0002E604D68DAF80060AD03554601D5164329
:1008E00000E096432E604D68DBF80060ED025D4647
:1008F00001D5164300E096432E604D68DEF8006097
:10090000AD02754601D5164300E096432E60641C87
:10091000102CFFF42FAFBDE8F88F00000004014059
:1009200000001110001002400000014000080140CA
:10093000000C01400010014000140140001801406B
:10094000001C01400AB1016170470904FBE7000087
:1009500001480068704700000C0000200248016850
:10096000491C0160704700000C00002010B50446CF
:1009700000F0F8F84FF47A71B0FBF1F000F035FCBC
:1009800000222146501E00F00DF8002010BD00F09E
:100990001F02012191404009800000F1E020C0F8D1
:1009A00000117047F0B40E4B1B68C3F30223C3F170
:1009B0000704042C00D904241D1D072D01D2002397
:1009C00000E0DB1E012606FA04F56D1E0D409D4079
:1009D0009E40761E164045EA0601F0BC00F02CBF92
:1009E0000CED00E02DE9F047DFF8688104460E4683
:1009F000D8F8000000F00700B0420CD2D8F8001080
:100A000021F007013143C8F80010D8F8000000F0C9
:100A10000700B04273D120784F4F800705D5786822
:100A2000A16820F0F000084378602078C00755D016
:100A30006068012201280CD0022828D0022393FAF2
:100A4000A3F1B1FA81F141F02001490904D03968DC
:100A500003E04FF40033F2E7796A93FAA3F3B3FAB1
:100A600083F303F01F039A40114248D0796821F0C4
:100A7000030101437960FFF76BFF0546606841F2AF
:100A8000883101280CD00228894615D022E04FF089
:100A90000073D4E7FFF75CFF411B494501D916E01D
:100AA00089467868C0F381000128F3D116E0FFF78A
:100AB0004FFF411B49450AD87868C0F381000228DE
:100AC000F5D10BE0FFF744FF411B494502D9032054
:100AD000BDE8F087786810F00C0FF3D1D8F800105B
:100AE000404601F00701B1420BD9016821F007012E
:100AF00031430160006800F00700B04201D00120DE
:100B0000E6E72078400705D57868E16820F4E060E2
:100B1000084378602078000706D57868216920F4BA
:100B2000605040EAC100786000F052F87968F02225
:100B300092FAA2F201F0F001B2FA82F2D140074A31
:100B4000515CC840064908600F20FFF70FFF0020E6
:100B5000BEE700000020024000100240B82B000851
:100B600008000020014800687047000008000020CD
:100B700008480949006849684FF4E06292FAA2F215
:100B800001F4E061B2FA82F2D140044A515CC840FB
:100B9000704700000800002000100240C82B000829
:100BA00008480949006849684FF4605292FAA2F275
:100BB00001F46051B2FA82F2D140044A515CC8405B
:100BC000704700000800002000100240C82B0008F9
:100BD00010B519A085B00FC88DE80F001AA01B4BE7
:100BE0000068049059681A4801F00C02042A1DD0CC
:100BF000082A1BD14FF4701494FAA4F401F4701273
:100C0000B4FA84F4E240C9031DF8022010D55968F3
:100C10004FF4003393FAA3F301F40031B3FA83F3F2
:100C2000D94004AB595CB0FBF1F0504305B010BDA6
:100C300008485043FAE700000203040506070809C4
:100C40000A0B0C0D0E0F10100102000000100240E4
:100C500000127A0000093D002DE9F84F04460078A3
:100C6000FE4EC0074FF001057FD070684FF400388A
:100C7000C0F38100012807D07068C0F3810002280A
:100C80001BD17068C00318D598FAA8F0B0FA80F0AC
:100C900040F02000400901D0306800E0706A98FA06
:100CA000A8F1B1FA81F101F01F0105FA01F1084242
:100CB0005BD06068002879D057E06068B0F5803F6D
:100CC0000BD010B1B0F5A02F11D0306820F48030D7
:100CD0003060306820F4802002E0306840F48030DA
:100CE0003060606818B3FFF733FE074609E03068EC
:100CF00040F480203060F0E7FFF72AFEC01B642834
:100D000070D898FAA8F0B0FA80F040F020004009BE
:100D100001D0306800E0706A98FAA8F1B1FA81F168
:100D200001F01F0105FA01F10842E5D01DE0FFF7CF
:100D30000FFE074604E0FFF70BFEC01B6428DFD858
:100D400098FAA8F0B0FA80F040F02000400901D0F5
:100D5000306800E0706A98FAA8F1B1FA81F101F008
:100D60001F0105FA01F10842E5D12078DFF8F08291
:100D700080074FF0000A4FF002075AD570684FF015
:100D8000F80B10F00C0F07D07068C0F38100022838
:100D90001CD17068C00319D497FAA7F0B0FA80F09C
:100DA00040F02000400902D0306801E08AE0706A1B
:100DB00097FAA7F1B1FA81F101F01F0105FA01F1EB
:100DC00008422BD0206901287CD127E0206988B314
:100DD00095FAA5F0B0FA80F048F82050FFF7B8FD7A
:100DE000814606E04DE1FFF7B3FDA0EB09000228C4
:100DF00086D897FAA7F0B0FA80F040F020004009BA
:100E000001D0306800E0706A97FAA7F1B1FA81F179
:100E100001F01F0105FA01F10842E4D030689BFAA5
:100E2000ABF220F0F8016069B2FA82F2904001431F
:100E3000316025E0FFE795FAA5F1B1FA81F148F8B4
:100E400021A0FFF785FD814605E0FFF781FDA0EBBE
:100E500009000228CCD897FAA7F0B0FA80F040F049
:100E60002000400901D0306800E0706A97FAA7F1CD
:100E7000B1FA81F101F01F0105FA01F10842E4D154
:100E8000207800076DD5A069B8B395FAA5F0B0FA3F
:100E900080F008EB8000C0F88054FFF759FD8146D0
:100EA00005E0FFF755FDA0EB09000228A0D897FA4E
:100EB000A7F0B0FA80F040F06000B5EB501F02D10F
:100EC00030680CE063E197FAA7F0B0FA80F040F0E8
:100ED0006000B7EB501F01D1306A00E0706A97FAEA
:100EE000A7F1B1FA81F101F01F0105FA01F21042F8
:100EF000D7D00120FFF725FC33E0FFE795FAA5F1F5
:100F0000B1FA81F108EB8101C1F880A4FFF720FD5F
:100F1000814605E0FFF71CFDA0EB0900022899D8E7
:100F200097FAA7F0B0FA80F040F06000B5EB501FE0
:100F300001D130680BE097FAA7F0B0FA80F040F0EA
:100F40006000B7EB501F01D1306A00E0706A97FA79
:100F5000A7F1B1FA81F101F01F0105FA01F2104287
:100F6000D8D12078400763D5F06940F08050F06117
:100F7000F069DFF8F0B000F080500090DBF800106E
:100F800041F48071CBF80010FFF7E2FC814605E0E8
:100F9000FFF7DEFCA0EB0900642872D8DBF8000044
:100FA000C005F5D5E06801280AD008B1052813D09E
:100FB000306A20F001003062306A20F0040002E064
:100FC000306A40F001003062E06841F2883B80B353
:100FD000FFF7BEFC81460AE0306A40F00400306250
:100FE000EEE7FFF7B5FCA0EB0901594549D897FAA0
:100FF000A7F0B0FA80F040F04000B5EB501F01D1EF
:1010000030680BE097FAA7F0B0FA80F040F04000AB
:10101000B7EB501F01D1306A00E0706A97FAA7F170
:10102000B1FA81F101F01F0205FA02F10842D8D0AD
:1010300033E0FFE7FFF78CFC814605E0FFF788FC13
:10104000A0EB090159451CD897FAA7F0B0FA80F037
:1010500040F04000B5EB501F08D105E00010024001
:10106000000042420070004030680CE097FAA7F0A0
:10107000B0FA80F040F04000B7EB501F02D1306A68
:1010800001E08AE0706A97FAA7F1B1FA81F101F004
:101090001F0205FA02F10842D0D1E06998B37168E5
:1010A000C1F38101022972D002284FF080714FF004
:1010B000007B50460AD091FAA1F1B1FA81F148F8CB
:1010C0002100FFF745FC04465F4669E08A4691FA35
:1010D000A1F1B1FA81F1C14648F82100FFF738FCCF
:1010E000A84607465D4604E0FFF732FCC01B022815
:1010F00053D895FAA5F0B0FA80F040F020004009EE
:1011000002D0306801E060E0706A95FAA5F1B1FAAA
:1011100081F101F01F0208FA02F10842E4D1206ACD
:10112000B0F5803F05D17068A16820F40030084315
:101130007060D4E908010843716821F47411084310
:1011400070609AFAAAF0B0FA80F0474649F8208019
:10115000FFF7FEFB044604E0FFF7FAFB001B022842
:101160001BD895FAA5F0B0FA80F040F020004009B5
:1011700001D0306800E0706A95FAA5F1B1FA81F10A
:1011800001F01F0107FA01F10842E5D01DE01EE061
:10119000FFF7DEFB001B022802D90320BDE8F88F11
:1011A00097FAA7F0B0FA80F040F02000400901D093
:1011B000306800E0706A97FAA7F1B1FA81F101F0A6
:1011C0001F0105FA01F10842E2D10020E6E7012003
:1011D000E4E74FF0E0210428086903D020F0040080
:1011E0000861704740F00400FAE710B5401EB0F106
:1011F000807F01D3012010BD4FF0E02460610F21FA
:10120000601700F019FB0020A0610720206100207A
:1012100010BD7047704710B5040003D094F8390032
:1012200010B107E0012010BD002084F838002046EE
:1012300000F00CF8022084F83900211D206801F02C
:101240009DF9012084F83900002010BD08B5006820
:101250000B49884212D10B48C16941F00201C161BA
:10126000C069032200F00200009001211D20FFF759
:1012700099FBBDE808401D20FFF789BB08BD0000B1
:1012800000040040001002400168CA6842F00102F8
:10129000CA600068016841F00101016000207047E8
:1012A000704770B50446006801694FF00005C943F6
:1012B000890715D4C168C943890711D4E91E0161A2
:1012C00001202076206880698007204602D0FFF741
:1012D000E7FF04E000F098F8204600F096F8257645
:1012E00020680169C943490717D4C168C943490740
:1012F00013D46FF004010161022020762068806918
:1013000010F4407F204602D0FFF7CAFF04E000F04F
:101310007BF8204600F079F8257620680169C943FA
:10132000090716D4C168C943090712D46FF0080130
:101330000161042020762068C0698007204602D021
:10134000FFF7AEFF04E000F05FF8204600F05DF824
:10135000257620680169C943C90617D4C168C94305
:10136000C90613D46FF010010161082020762068AF
:10137000C06910F4407F204602D0FFF791FF04E0DF
:1013800000F042F8204600F040F825762068016918
:10139000C943C90708D1C168C943C90704D1891E17
:1013A0000161204600F032F820680169C94309064E
:1013B00009D4C168C943090605D46FF080010161F1
:1013C0002046FFF726FF20680169C943490609D472
:1013D000C168C943490605D46FF040010161204648
:1013E00000F022F820680169C94389060BD4C1685E
:1013F000C943890607D46FF0200101612046BDE88A
:101400007040FFF707BF70BD7047704704498842BE
:1014100005D10448017809B14168491C4160704711
:10142000C0070020280000207047704738B50446E8
:1014300000680168C268C1F3000102F4807221B142
:101440001AB1E16B41F00101E1630168C1F34002AF
:10145000416901F0010122B119B1E26B42F00402CD
:10146000E2630268C2F3800222B119B1E26B42F07A
:101470000202E2630268C2F3C00222B119B1E16B59
:1014800041F00801E1630168C068C1F3401100F058
:10149000200019B110B1204601F012F9206801684E
:1014A000C068C1F3C01100F0800019B110B120462E
:1014B00001F012FA21680868CA68C0F3801002F0CF
:1014C0004002012568B162B1CA68204622F040029C
:1014D000CA6094F83910322910D080F8395000F0E1
:1014E0000CF9E06B002808D0206801684068009083
:1014F00084F839502046FFF798FF38BD222180F844
:101500003910ECE770B5040004D094F839000025D8
:1015100010B106E0012070BD84F83850204600F07C
:1015200021F8022084F839002068C16821F40051B4
:10153000C160204601F018F92068016921F490414A
:1015400001612068416921F02A0141612068C16878
:1015500041F40051C160E563012084F839000020A6
:1015600070BD0000F0B545490068DFF80CC10024EB
:10157000022201230327424D0E1585B060452BD171
:10158000886940F004008861886900F004000490D4
:10159000886940F480408861886900F48040049044
:1015A000886940F001008861886900F001000490BA
:1015B00048158DE88D0069462846FFF7CDF8CDE93E
:1015C000006469462846FFF7C7F82520FFF7DFF9D2
:1015D00003221146252027E0DFF8A8C0604527D167
:1015E000886940F004008861886900F00400049074
:1015F000C86940F40030C861C869694600F4003029
:10160000049004208DE88D002846FFF7A5F80821F6
:10161000CDE9001469462846FFF79EF82620FFF71B
:10162000B6F9032211462620FFF7BCF905B0F0BD3C
:10163000154DA842FAD1886940F008008861886990
:1016400000F008000490C86940F48020C861C869AF
:10165000009600F48020CDE903700C4D69462846C1
:10166000CDE90123FFF778F8E914CDE900146946C4
:101670002846FFF771F8D9E7003801400010024012
:10168000000801400044004000480040000C0140B8
:1016900090F83930012B01D0122B2BD131B32AB362
:1016A00090F83830012B25D0012380F83830816242
:1016B0008285C2850021C16390F83920122A17D093
:1016C000222280F8392080F838100168CA6842F474
:1016D0008072CA6001684A6942F001024A6100688A
:1016E000C16841F02001C1600020704701207047AF
:1016F0003222E6E70220704770477047FEE700009D
:10170000F0B51C4885B0816941F0080181618169AB
:1017100001F008010491816941F00401816180694F
:10172000012446F20306CDE9006400F0040003251D
:101730000294CDE90350104F69463846FFF70CF884
:10174000012231463846FFF7FDF830200026CDE96A
:10175000000669460948CDE90245FEF7FDFFC020B5
:10176000CDE9000669463846CDE90245FEF7F4FFAB
:1017700005B0F0BD00100240000C0140000801401F
:101780000B4908680968C0F34010022202EAD1013F
:10179000084A01431068042303EA50100843116803
:1017A000082202EAD1010143C843C0B270470000D9
:1017B00008080140080C014070B50024FFF7E0FF65
:1017C000184D10F00F00687022D0E87801281FD162
:1017D000052000F021FBFFF7D3FF00F00F01A970F7
:1017E0006878884214D110A0FEF768FD0020E870E8
:1017F0006878C10701D001240AE0810701D50224DD
:1018000006E0410701D5032402E0000700D50424C7
:101810006878E978084302D10120E8700024204666
:1018200070BD0000380000206B696E313D253032FC
:10183000580D0A00FEE770470907090E002806DA6E
:1018400000F00F0000F1E02080F8141D704700F157
:10185000E02080F80014704738B500F07DF8354C72
:101860000023636223706370A3716371A3602361BB
:10187000237104F128011846401CC0B201F8013B55
:101880000828F9D3A370E370E3614FF446712A4846
:10189000636100F007FC4FF48071284800F002FCFF
:1018A0002548002200F148013F25416080F838506A
:1018B00080F83930521CD2B2483048310A2AF4D369
:1018C000436080F8385080F839301B482362A061AB
:1018D0004FF4B471A0F55A7000F0E4FB18480022F0
:1018E00000F1240100F8043B521C40F80F1B92B297
:1018F00000F8015B243100F8103B092AF2D3037091
:101900004360C57403750E48E06000F097FB00F07B
:10191000D3FB0A4A3F23121F00210A4800F010F9A6
:101920006A4609A13F2000F0F5F9BDE8384000F013
:1019300014B800003C000020640C0020640B002060
:10194000FC0800205922000875432F4F532D4949A8
:101950002049646C650000007047704770B5144CF6
:101960006079012822D1FEF755FC0546207820B188
:10197000401E10F0FF00207013D1607888B900F08D
:10198000E1FBE078A17888420BD00A4951F8201099
:10199000E161486A401C4862A068401CA060FEF7F4
:1019A00055FC2846BDE87040FEF738BC70BD00000D
:1019B0003C000020640B002070B505460D480078FF
:1019C00008B1002070BDFEF725FC0B490C680CB176
:1019D00062680A60FEF722FC54B103202070258162
:1019E00000203F216060E1742075204600F01AFB62
:1019F000204670BD3C000020480000202DE9F04743
:101A000089460546140011D025B12878032803D053
:101A100001200AE0042008E02348007808B10220F1
:101A200003E02248007818B10D201070BDE8F0875F
:101A3000FEF7F0FB06462889002730B1401E2881BA
:101A40003046FEF7EBFB2770F0E7DFF86480D8F84C
:101A50000000017F41F0010101774777A0F81A905B
:101A6000284600F0BBFA3046FEF7D8FB00F046FBF4
:101A7000FEF7D0FB0646D8F80000417F31B10229BD
:101A800006D0294600F09AFA0A2002E0277001E009
:101A90000E202070D8F8000007774777C7603046DF
:101AA000BDE8F047FEF7BABB3C0000203D00002037
:101AB0005000002070B5040004D02078032803D023
:101AC000012070BD042070BDFEF7A4FB0546A07A7E
:101AD00058B1002301221946204600F041FA284659
:101AE000FEF79CFB00F00AFB09E020894FF6FF712E
:101AF000884206D2401C20812846FEF78FFB00203A
:101B000070BD2846FEF78AFB322070BD10B5094C27
:101B1000607900280CD100F015FBE0780649A07030
:101B200051F82000E0616061BDE81040FEF779BB2C
:101B300010BD00003C000020640B00207047000036
:101B40002DE9FE431C4616460F4680463F2B02D920
:101B50002A20BDE8FE83FEF75DFB1A49097819B11A
:101B6000FEF75CFB3C20F4E7174D55F8241019B143
:101B7000FEF754FB2820ECE7012145F82410FEF77E
:101B80004DFB002332463946404600F00BF9002653
:101B9000014600960196334632462046029600F0F2
:101BA000F9FA070007D0FEF735FB45F82460FEF789
:101BB00035FB3846CDE7054800780128F9D100F01B
:101BC0009DFAF6E73C000020640B00204100002055
:101BD000704700002DE9F04705464348007810B1F2
:101BE0004020BDE8F0873F2D04D005D3FF2D03D062
:101BF0002A20F6E73E20F4E7FEF70CFB0646FF2D11
:101C000002D13A480068857FDFF8E49059F8254012
:101C10005CB1012C0ED094F82010364A94F8213093
:101C2000505C984350540AD00FE03046FEF7F6FA65
:101C30004320D6E73046FEF7F1FA3D20D1E72E48A3
:101C400094F82220017891430170E16811B1204697
:101C500000F0B4F9606908B100F014FA4FF0000820
:101C6000A4F81A80254F84F81C8084F81D803878E9
:101C7000FF2801D2401C38703046FEF7CFFA00F042
:101C80006DF9FEF7C7FA0646387808B1401E38707D
:101C9000204600F03DF81A480178491E017049F8C5
:101CA0002580A0684146A0B162684260D4E9010283
:101CB000826014480268626004603F2004F8380FB4
:101CC00030466170FEF7AAFA0F480078012806D066
:101CD00007E060680D4A816060681060E9E700F025
:101CE0000DFA00207DE700003C000020500000209D
:101CF000640B002064000020400000203D00002014
:101D00004200002054000020410000205C00002020
:101D1000704770472DE9F0418846054614000DD004
:101D20003F2D03D9FF2D01D02A2006E0B8F1000F86
:101D300006D01948007828B112201070BDE8F08153
:101D40000C20FAE7FEF766FA0646FF2D02D113488B
:101D50000068857F1248432750F825505DB1012D5A
:101D600009D0404600F00CFA0F2809D93046FEF79A
:101D700055FA41200DE03046FEF750FA2770DDE7B6
:101D8000414605F1380000F0EDF93046FEF746FA1D
:101D900000202070D2E700003C000020500000200E
:101DA000640B00204FF080731360131F1860A2F1C2
:101DB00008006FF001030360001F4FF0123303604F
:101DC000001F4FF003330360001F4FF00233036026
:101DD000001F5B100360001F0160001F4FF01131F6
:101DE0000160001F19010160001F4FF009310160FF
:101DF000001FD9000160001F4FF007310160001F74
:101E00004FF006310160001F4FF00531016099006D
:101E1000001F01607047704770B504461148007894
:101E200000281DD1002C1BD0FEF7F4F903460E4804
:101E30000E4D016891F8202091F82160A85CB04314
:101E4000A85405D10A4891F822500278AA4302709A
:101E50004C831846FEF7E2F9BDE8704000F04EB939
:101E600070BD00003C0000205000002064000020F5
:101E7000400000202DE9F04100F048F8FEF7CAF9D3
:101E8000214D696A491C6962FEF7C8F96879012821
:101E900037D1E8790126002720B1012831D0022866
:101EA00002D0EF712C6A29E0EE71FBE7FEF7B2F980
:101EB000618B01B3491E0904090C61831BD1217F89
:101EC00011F0370F04D021F037012177667700E059
:101ED0006777217F09070ED494F822102A790A4BDC
:101EE0001143297194F82010283394F821C05A5CCA
:101EF00042EA0C025A546468FEF790F9A07F3F282A
:101F0000D4D1BDE8F08100003C0000207047000003
:101F100010B5FEF77FF9064A1178491C1170FEF7DB
:101F20007DF9FFF7A7FFBDE81040FFF717BD0000E0
:101F30003C0000204FF0E0204FF6FF114161064ABF
:101F4000FF211170016941F005010161016941F052
:101F5000020101617047000023ED00E070470000BE
:101F6000F0B50E460146847A11480027045D0D192C
:101F7000ED7A405D00EBC400C5B20E4850F8250074
:101F800047830661067F96430677437732070BD473
:101F9000094A90F82230167933431371283290F8A9
:101FA0002160135D3343135500F008F82846F0BD57
:101FB000D02B0008640B00203C00002010B590F8E6
:101FC000202090F821408B18DA7AA243DA7204D1EB
:101FD0008A7A90F8220082438A7210BD30B5104C84
:101FE00000F10B02616941F80C0F0B7D497D9D5C8E
:101FF0000D439D546169827A91F822301A438272AE
:1020000091F8200004F1280391F821501A5CAA43AA
:102010001A5404D191F8221020798843207130BDE0
:102020003C0000200022827211460B30491CC9B2CC
:1020300000F8012B0829F9D37047000010B58C2156
:102040000E4800F02FF80D48002200F11C01134645
:102050003F2400F8043B521C40F8061B92B200F8E3
:10206000014B1C3100F8113B042AF2D3037043608A
:1020700084720349C3720148086010BD7C0F0020C0
:102080006C000020D0E9001200232AB1116001B1D8
:102090004A60806843617047C26800295160F8D087
:1020A0004B60F6E7002203E0491E00F8012B89B2DD
:1020B0000029F9D17047000070B5B4210D48FFF731
:1020C000F1FF0C4800210B4604463F2501EBC102FD
:1020D00004EB82022432426005754375491C89B2C3
:1020E00024300429F2D34360057543750248046027
:1020F00070BD0000081000207000002070B5FEF7D1
:1021000089F80E4C0546207898B9607888B900F0B7
:1021100019F8E078A17888420BD0094951F82010CD
:10212000E161486A401C4862A068401CA060FEF75C
:1021300088F82846BDE87040FEF770B83C000020E3
:10214000640B00200649054A01F128030879105C58
:102150001B5CD25C02EBC000C8707047D02B00083B
:102160003C000020002204E0521C00F8013BD2B2E7
:10217000491C0B78002BF7D10021017010467047E5
:102180000146002002E0401CC0B2491C0A78002A27
:10219000F9D170472DE9F0410D460646FEF73AF8B1
:1021A0002B4FBC69002C4ED054F8041FB961FEF7C8
:1021B00035F844F8045CA676002525766576E58238
:1021C000F008E5772077012306F0070103FA00F213
:1021D000E176A27703FA01F26277A5602561E560F6
:1021E0002562A5626562E5623F20256384F83400BC
:1021F00084F83550241F2046FFF7A0FC2046FFF747
:10220000E7FCFEF707F80146124840F82640386A16
:10221000C4E9010500B184603C6294F822003A7977
:10222000104338710A4A14F8200F28326478135C7E
:1022300023431354B879401CB8710846FDF7EEFFEC
:102240000020BDE8F081FDF7E9FF4220F9E700003A
:102250003C000020640B0020054CFDF7DBFF2169EA
:10226000491C2161FDF7DAFFFFF753FDF5E7000098
:102270003C000020FDF7EFBF08B56B46094A00F0AF
:1022800053FC09480749406840390A6C026091F8DC
:1022900044200271002A03D080684531FEF70AF914
:1022A00008BD0000BC0800203000002030B51148F7
:1022B00085B0816941F00401816180690E4C00F0B4
:1022C000040004904FF490700090012001900220CF
:1022D000039069462046FEF73FFAA51500222946DD
:1022E0002046FEF72FFB002229462046FEF72AFB58
:1022F00005B030BD0010024000080140F8B51D4E89
:102300001D001D4C13460F4672780699227002F18B
:10231000010272706370A070E77025714FF00500C4
:10232000307006D0601D2A46FEF7C4F83078284485
:102330003070114AC1B26B4680320F4800F0AEFBDC
:1023400001220E4D140221462846FEF7FBFA0A2010
:1023500000F073FB08489DF80010803000F006FB89
:102360000A2000F06AFB002221462846FEF7EAFA1E
:10237000F8BD000010000020A80300200008014064
:1023800010B54FF4E134204600F042F9204600F049
:102390005BF9204600F076F914A0FDF78FFFFFF7F8
:1023A00085FF3F2140F2E73000F0D2F8154800F0F9
:1023B0006BFBFFF7A5F90020FFF7FEFA0146114875
:1023C00024222438FEF7BBF804230F4A00210F48CB
:1023D000FFF7B6FB0B4A0523283A00210C48FFF70C
:1023E000AFFBBDE810400620FFF7F4BB74686973CB
:1023F00020697320757361727433207072696E7412
:10240000660D0A00980300207002002015240008C1
:10241000210700081CB5124C124D0026104801AAD5
:1024200000212438FFF7EAFA207B0128F6D1267331
:102430000DA0FDF743FF28780028EFD06078012831
:10244000ECD1E0780228E9D10AA0FDF737FF01239B
:102450000222194610460095FFF750FF2E70DDE767
:1024600098030020000000206765742072657131B8
:102470000D0A000067657420726571320D0A000054
:1024800010B5FEF76BFABDE81040FFF741BD30B55F
:102490008FB00224012004900094102005900025A4
:1024A0004FF46010CDE9085007946846FEF7D4FB5E
:1024B00000B1FEE70AA90F2081E831004FF48060E7
:1024C000CDE90D0502210AA8FEF78CFA00B1FEE75E
:1024D000FEF748FB4FF47A71B0FBF1F0FEF785FE92
:1024E0000420FEF776FE00221146501EFEF75AFA2F
:1024F0000FB030BD0F4810B5016841F00101016017
:1025000041680D4A1140416001680C4A1140016068
:10251000016821F480210160416821F4FE014160DD
:102520004FF41F018160FFF7B2FF05494FF00060D3
:10253000086010BD001002400000FFF8FFFFF6FE2B
:1025400008ED00E00148FEF7ACBE0000C007002027
:10255000094A10B5074BC2E900310021C2E9021057
:1025600010461161FEF757FEBDE810400248FEF725
:102570008BBE000000040040C0070020F0B50268D8
:102580001A4D1B4E1B4FDFF870C01C4B4FF0804E96
:10259000A84209D0984207D0704505D0B04203D078
:1025A000B84201D0604503D122F070044A6822434A
:1025B000A84209D0984207D0704505D0B04203D058
:1025C000B84201D0604503D122F44074CA68224366
:1025D00002608A68C2620A688262A84201D0984298
:1025E00001D10969016301214161F0BD002C014065
:1025F0000004004000080040000C0040003401408E
:10260000024900B101200870704700002800002036
:102610000B4910B5094AC1E9002000208860C86054
:10262000086188610C2048610846FEF76BFFBDE831
:102630001040012203490248FFF72AB80038014040
:10264000A8040020150000200C4910B50A4AC1E971
:10265000002000208860C8600C220861C1E90520C4
:10266000C8610846FEF74EFFBDE81040012204494C
:102670000248FFF70DB8000000440040800700202A
:10268000160000200C4910B50A4AC1E900200020BC
:102690008860C8600C220861C1E90520C86108464D
:1026A000FEF730FFBDE81040012204490248FEF762
:1026B000EFBF000000480040E804002016000020A2
:1026C00010B590F83910222903D0322901D0022008
:1026D00010BD8168B1F5805F11D0016900290168E2
:1026E0001FD0496801F07F03816A4A1C82620B7027
:1026F000C18D491E0904090CC18518D02FE002695B
:10270000816A002A0268526805D0D2B20A80816AC2
:10271000491C8162ECE7C2F308020A80816A891CC5
:10272000F7E74A68816A4B1C83620A70E0E7016838
:10273000CA6822F02002CA6090F83910322910D0FD
:102740000168CA6822F48072CA6001684A6922F08E
:1027500001024A61012180F83910FEF7CDFF002007
:1027600010BD1221F7E700002DE9F0410446006892
:102770000169E26821F4405111430161A1682069B7
:102780000143606901432068C26841F20C639A43C7
:102790000A43C26020684169A26921F44071114373
:1027A00041614C4920686426322788423CD1FEF7BB
:1027B000F7F900EBC00101EB001061688900B0FB84
:1027C000F1F5FEF7EDF900EBC00101EB00106168D7
:1027D000B8468900B0FBF1F0B0FBF6F06FF01801DD
:1027E000484305EB800107EB0110B0FBF6F000F069
:1027F000F005FEF7D5F900EBC00101EB00106168B0
:102800008900B0FBF1F0B0FBF6F005EB0015FEF728
:10281000C7F900EBC00101EB001061688900B0FB53
:10282000F1F7FEF7BDF93BE0FEF7A2F900EBC001BE
:1028300001EB001061688900B0FBF1F5FEF798F933
:1028400000EBC00101EB00106168B8468900B0FBE5
:10285000F1F0B0FBF6F06FF01801484305EB800192
:1028600007EB0110B0FBF6F000F0F005FEF780F981
:1028700000EBC00101EB001061688900B0FBF1F0D2
:10288000B0FBF6F005EB0015FEF772F900EBC001A6
:1028900001EB001061688900B0FBF1F7FEF768F901
:1028A00000EBC00101EB001061688900B0FBF1F0A2
:1028B000B0FBF6F06FF01801484307EB800108EB1E
:1028C0000110B0FBF6F0216800F00F00284488608A
:1028D000BDE8F0810038014090F83910122903D08A
:1028E000322901D0022070478168B1F5805F016A0A
:1028F0000BD04A1C0262026809785160C18C491EE3
:102900000904090CC1840ED017E009880268C1F3DC
:102910000801516001690029016A02D0491C016265
:10292000ECE7891CFBE70168CA6822F08002CA60F4
:102930000068C16841F04001C1600020704700009C
:10294000084810B500680068C043800604D40648F3
:102950000068C0B200F004F9BDE810400148FEF77D
:1029600065BD0000A80400200438014010B5084AE5
:10297000141D05E013685B06FCD510F8013B2360CD
:10298000491E89B2F6D210684006FCD510BD000081
:10299000003801402DE9F041194800680068C04343
:1029A000800621D417480068174DC4B2E8680104B6
:1029B0001AD42978154F4FF416780026C9B141046E
:1029C00004D5632C0FD140F4004003E0622C03D106
:1029D00040F48040E86007E0C0F30D01401C7C54E7
:1029E000E860404500D3EE60BDE8F0410448FEF7E2
:1029F0001DBD0120FFF704FE05480660E868EBE70F
:102A00008007002004440040140000202805002016
:102A10002C000020FEE730380A2801D20120704740
:102A20000020704770470246002002E012F8013B88
:102A30005840491EC9B2F9D2704702E00221491E2E
:102A4000FDD2401EFAD2704704490A685206FCD5EE
:102A5000024AC1B2121D11607047000000480040D8
:102A600010B5FFF767FAFEF7F7FE0623044A0021C8
:102A70000448FFF765F8FFF749F8002010BD000093
:102A800070010020812300080249816002494860EA
:102A900070470000FC070020300000202DE9F047BF
:102AA0004FF0C0090124DC279A46154682F80090B1
:102AB000DB264FF0DD0808E00278C02A1AD0DB2AB6
:102AC0001DD02A55641CE4B2401C491EC9B2F3D281
:102AD0002146681CFFF7A7FFC02818D0DB281BD0B1
:102AE0002855641CE0B205F80090401C8AF80000EC
:102AF000BDE8F0872E55641CE2B2AF5404E02E55B9
:102B0000641CE2B205F80280521CD4B2DCE72E55F8
:102B1000641CE0B22F5404E02E55641CE0B205F8AA
:102B20000080401CC0B2DEE770B5002408E00578E4
:102B3000DB2D0AD0C02D02D01555641CE4B2401C18
:102B4000491EC9B2F3D21C7070BD10F8015FDC2DB4
:102B500003D0DD2DF3D1DB25EEE7C025ECE7000047
:102B600070B511490860114C0023114E61780125A0
:102B7000A1B1012911D121460A78511CC9B2B05422
:102B8000C028217009D1A37063703046FFF774FB31
:102B90000848FEF78FFF6068057370BDC028FCD140
:102BA00030702570657070BD043801403000002021
:102BB0003C0800207403002000000000000000001A
:102BC00001020304060708090000000001020304D3
:102BD00000000100020001000300010002000100EA
:102BE00004000100020001000300010002000100D6
:102BF00005000100020001000300010002000100C5
:102C000004000100020001000300010002000100B5
:102C100006000100020001000300010002000100A3
:102C20000400010002000100030001000200010095
:102C30000500010002000100030001000200010084
:102C40000400010002000100030001000200010075
:102C50000700010002000100030001000200010062
:102C60000400010002000100030001000200010055
:102C70000500010002000100030001000200010044
:102C80000400010002000100030001000200010035
:102C90000600010002000100030001000200010023
:102CA0000400010002000100030001000200010015
:102CB0000500010002000100030001000200010004
:102CC00004000100020001000300010002000100F5
:102CD0003031323334353637383941424344454652
:102CE000403058003031323334353637383961624C
:102CF000636465664030780004000008000000004E
:102D00000000000200010000100000002C2D00084F
:102D100000000020740000006C010008A02D0008D5
:102D200074000020AC1600008801000800000000BC
:102D3000000000000090D003000000000000000030
:102D40000000000000000000000000000000000083
:102D50000000000000000000000000000000000073
:102D60000000000001000001000000000000000061
:102D70000000000000000000000000000000000053
:102D80000000000000000000000000000000000043
:102D90000000000000000000000000000000000033
:0400000508000131BD
:00000001FF
